:020000040800F2
:1000000060060020450100085504000809040008A6
:10001000530400081D020008D11100080000000070
:1000200000000000000000000000000003080008BD
:100030001F020008000000005D050008850B000895
:100040005F0100085F0100085F0100085F01000810
:100050005F0100085F0100085F0100085F01000800
:100060005F0100085F0100085F0100085F010008F0
:100070005F0100085F0100085F0100085F010008E0
:100080005F0100085F0100085F0100085F010008D0
:100090005F0100085F0100085F0100085F010008C0
:1000A0005F0100085F0100085F0100085F010008B0
:1000B000C90B00085F0100085F0100085F0100082C
:1000C0005F0100085F0100085F0100085F01000890
:1000D0005F0100086D0E0008C10E0008FD0E00084B
:1000E0005F0100085F0100085F0100085F01000870
:1000F0005F0100085F0100085F0100085F01000860
:100100005F0100085F0100085F0100085F0100084F
:100110005F0100085F0100085F0100085F0100083F
:100120005F0100085F0100085F0100085F0100082F
:10013000DFF80CD000F060F800480047F515000823
:10014000600600200648804706480047FEE7FEE7B5
:10015000FEE7FEE7FEE7FEE7FEE7FEE7FEE7FEE777
:10016000890B000831010008D2B201E000F8012B30
:10017000491EFBD270470022F6E710B50446084638
:10018000114602462046FFF7EFFF204610BD30B56E
:100190000EE003460A4601E05B1C521C1C781578F1
:1001A000AC4201D1002CF7D115F0FF0F04D0401C58
:1001B0000278002AEDD1002030BD0146002000E089
:1001C000401C0A5C002AFBD1704730B50B46014643
:1001D00000202022012409E021FA02F59D4205D3E6
:1001E00003FA02F5491B04FA02F52844151EA2F190
:1001F0000102F1DC30BD0000064C074D06E0E0686E
:1002000040F0010394E8070098471034AC42F6D35D
:10021000FFF792FFD0180008F0180008FEE77047BB
:1002200004490A6822F010020A600A6802430A6060
:100230007047000000200240034A116801F03801B5
:10024000014311607047000000200240F8B5012111
:10025000084600F09DF90121264800F0A9F8012187
:10026000254800F0A5F8012144F27C0000F090F947
:100270000121480400F074F90121880400F070F9AC
:100280000324ADF8004010251C4E8DF803508DF866
:1002900002406946304600F039F81820ADF80000F9
:1002A0008DF803508DF802406946304600F02EF874
:1002B0000420ADF800008DF803508DF80240694627
:1002C0000F4800F023F8E802ADF800008DF8035065
:1002D0008DF8024069460B4800F018F8A003ADF80D
:1002E00000008DF803508DF802406946064800F082
:1002F0000DF8F8BD0004300000023000000C014091
:100300000014014000080140001001402DE9F041B7
:10031000CA780025D30602F00F0201D58B781A4364
:100320000B884FF00F084FF0010C13F0FF0F1CD09B
:10033000D0F800400E880CFA05F31E409E4210D102
:10034000AF0008FA07F624EA060602FA07F4344377
:10035000CE78282E02D0482E02D002E0436100E081
:1003600003616D1C082DE5D304600B88FF2B1DD99C
:100370004468002505F108060CFA06F30E881E40B5
:100380009E420FD1AF0008FA07F624EA060602FAE9
:1003900007F43443CE78282E00D14361CE78482E1E
:1003A00000D103616D1C082DE4D34460BDE8F081E9
:1003B000F0B5144C002801DAE36900E06368420DEF
:1003C000120185B2C0F301579540C0F30346032FD5
:1003D00005D0C2020AD50322B240934307E023F0BE
:1003E0007062636823F07063636002E0AB4343F0C4
:1003F000706201B12A43002801DAE261F0BD626057
:10040000F0BD000000000140FEE73EB54FF0804423
:10041000204600F011FC4FF47A50ADF8040036206D
:10042000ADF800000021ADF80610ADF802106946E5
:10043000204600F0CDFC0121204600F0EDFB01221A
:100440001146204600F0BCFC0121204600F0EAFBEA
:100450003EBDFEE7704738B500214FF0006000F068
:1004600073F84FF4C06000F065F825208DF80000A7
:1004700001248DF802408DF80340684600F02BF807
:1004800026208DF800008DF8014000258DF80250DF
:100490008DF80340684600F01EF827208DF8000014
:1004A0008DF801408DF802508DF80340684600F049
:1004B00012F80121084600F053F81C208DF80000C6
:1004C00003208DF801008DF802008DF80340684686
:1004D00000F001F838BDF0B50F22C57803784FF071
:1004E000E0210124E5B1D1F80C5D467805F4E06522
:1004F000C5F5E0652D0AC5F10407EA408578BE40E0
:10050000154035430B442A0183F800240078420942
:1005100000F01F00844001EB8200C0F80041F0BDF4
:1005200003F01F008440580901EB8000C0F88041AF
:10053000F0BD00000249084302490860704700000E
:100540000000FA050CED00E0024A114001430248A8
:100550000160704780FFFF1F08ED00E0704700005A
:10056000044A0029D16901D0014300E08143D161EF
:100570007047000000100240044A0029116901D0B0
:10058000014300E081431161704700000010024008
:10059000044A0029916901D0014300E0814391613F
:1005A0007047000000100240044A0029D16801D0C1
:1005B000014300E08143D160704700000010024019
:1005C00010B500F02DF84FF48034204600F0BEF84E
:1005D00000F004F9012821D11020FFF721FE0220AC
:1005E000FFF72AFE002000F0A7F8002000F0D2F864
:1005F000002000F0C5F82101204600F0DBF80120C2
:1006000000F0D2F8392000F077F80028FAD0022064
:1006100000F0DAF800F088F80828FBD110BD0000DF
:100620000C48016841F00101016041680A4A11402B
:1006300041600168094A11400160016821F480218C
:10064000016042684FF41F0122F4FE0242608160A3
:1006500070470000001002400000FFF8FFFFF6FEA8
:10066000214910B54B68214A13F00C0303D0042B29
:1006700001D0082B26D002604A681D4B02F0F00220
:1006800012099C5C0268E24042604C6804F4E06439
:10069000240A1C5D22FA04F484604C6804F460545B
:1006A0004FEAD4241B5D22FA03F2C2604968104B62
:1006B00001F440414FEA91311B1F595CB2FBF1F14B
:1006C000016110BD4A684B68022402F4701204EB09
:1006D000924213F4803F02D04B689B0301D5054B37
:1006E00000E0024B5A43C6E70010024000127A00B5
:1006F000EC00002000093D00024600205309094992
:10070000012B0BD0022B0BD0D1F8241002F01F02CA
:10071000012393400B4200D0012070470968F5E7A0
:10072000096AF3E7001002400248406800F00C003C
:100730007047000000100240034A516821F0F001A8
:100740000143516070470000001002400B490A68E5
:1007500022F480320A600A68B0F5803F22F48022D9
:100760000A6007D0B0F5802F03D1086840F4A020BC
:1007700008607047086840F48030F9E700100240D4
:10078000034A516821F4E061014351607047000061
:100790000010024003494A6822F4605242EAC00055
:1007A0004860704700100240014908667047000029
:1007B00000004242034A5368084323F47C13184361
:1007C0005060704700100240034A516821F0030155
:1007D00001435160704700000010024030B5002412
:1007E0004FF4A0653120FFF787FF641CAC4201D0B5
:1007F0000028F7D03120FFF77FFF002800D001202C
:1008000030BD704770B5144C144D607A302804D157
:10081000E07A312819D0352817D00F4800F0FCFFB6
:100820000FA000F0F9FF607A00F020FEE07A00F0FF
:100830001DFE0FA000F0F0FF00F0FAFD0320A870ED
:10084000BDE870400BA000F0F1BF0DA000F0E4FF88
:100850000420A87070BD0000E80100200400002002
:10086000535F52454720455252200D0A00000000B8
:100870000D0A000041542B435245473F0D0A00002A
:10088000535F524547204F4B200D0A00124810B5C8
:1008900081784F2902D1C0784B280CD00E4800F047
:1008A000BBFF0EA000F0B8FF00F0C2FD0FA0BDE836
:1008B000104000F0BBBF0FA000F0AEFF41F2883047
:1008C00000F0E1FD0E4C0120607000F0B1FD02204F
:1008D000A0700CA0EBE70000E80100204543484F62
:1008E0003020455252200D0A00000000415445308E
:1008F0000D0A00004543484F30204F4B200D0A00A1
:100900000400002041542B4350494E3F0D0A000083
:100910000D4810B581784F2902D1C0784B2809D0F5
:100920000AA000F079FF00F083FDBDE810400EA0A2
:1009300000F07CBF10A000F06FFF00F079FD1549BA
:100940003320887010BD0000E8010020535F47533A
:100950004D5F434841525F4D4F44455F5245545FA0
:1009600053204E4F200D0A0041542B435343533D17
:100970002247534D220D0A00535F47534D5F4348B2
:1009800041525F4D4F44455F5245545F53204F4B9A
:10099000200D0A00040000200D4810B581784F2971
:1009A00002D1C0784B2809D00AA000F035FF00F032
:1009B0003FFD0EA0BDE8104000F038BF0EA000F0D3
:1009C0002BFF00F035FD12493220887011A0F1E7AD
:1009D000E8010020535F47534D5F434841525F4D4C
:1009E0004F44455F53204E4F200D0A0041542B4386
:1009F0004D47463D310D0A00535F47534D5F434815
:100A000041525F4D4F44455F53204F4B200D0A002C
:100A10000400002041542B435343533D2247534D80
:100A2000220D0A0010B506A000F0F6FE00F000FD51
:100A3000094931208870BDE8104008A000F0F6BEDA
:100A4000535F47534D5F4D53475F4D4F44455F5391
:100A5000204F4B200D0A00000400002041542B437E
:100A60004D47463D310D0A0010B5114800F0D4FE47
:100A700010A10F48FFF78BFB68B10FA000F0CCFE70
:100A800041F2883000F0FFFC00F0D2FC0E49032058
:100A900088700EA008E0064800F0BEFE0EA000F030
:100AA000BBFE00F0C5FC10A0BDE8104000F0BEBECB
:100AB000E80100204F4B000053494D434152442070
:100AC0004F4B200D0A0000000400002041542B432E
:100AD0005245473F0D0A000053494D4341524420BF
:100AE000455252200D0A000041542B4350494E3FBD
:100AF0000D0A000021480021026842F480320260A1
:100B00004FF4A0630268491C12F4003F01D19942DE
:100B1000F8D10168890330D519490A6842F01002FA
:100B20000A600A6822F003020A600A6842F00202C0
:100B30000A604168416041684160416841F48061F8
:100B40004160416821F47C114160416841F4E81141
:100B50004160016841F08071016001688901FCD544
:100B6000416821F003014160416841F002014160A8
:100B70004168C1F381010229FAD170470010024097
:100B800000200240704700000C48016841F001015C
:100B9000016041680A4A114041600168094A1140F8
:100BA0000160016821F480210160416821F4FE01A7
:100BB00041604FF41F018160FFF79CBF00100240AD
:100BC0000000FFF8FFFFF6FE10B501218C0720465C
:100BD00000F0EAF800281CD00E4900230868401CE9
:100BE00008604A68521C4A60322A02D101220A7205
:100BF0004B60642803D1C8680B60401CC8600121A9
:100C0000204600F00CF82046BDE81040012100F01D
:100C100006B810BD00010020C94301827047C943D6
:100C2000018270470029018802D041F0010101E0F2
:100C300021F00101018070474B4910B5884202D173
:100C40000121C41486E0B0F1804F09D047498842A1
:100C50000DD101210220FFF78FFC0021022064E06A
:100C600001210846FFF788FC002101205DE0404992
:100C7000884206D101210420FFF77EFC00210420D8
:100C800053E03C49884206D101210820FFF774FC5B
:100C90000021082049E03849884206D1012110206E
:100CA000FFF76AFC002110203FE03449884206D15A
:100CB00001212020FFF760FC0021202035E0304991
:100CC000884202D10121441444E02E49884202D1D5
:100CD0000121CC043EE02C49884202D101210C05BF
:100CE00038E02A49884202D101214C0532E02849E6
:100CF000884206D101214020FFF73EFC0021402020
:100D000013E02449884206D101218020FFF734FCFA
:100D10000021802009E0204988420AD18415012160
:100D20002046FFF729FC00212046BDE81040FFF7D0
:100D300023BC1A49884202D101210C040AE0184957
:100D4000884202D101214C0404E0164988420AD1AC
:100D500001218C042046FFF727FC2046BDE8104007
:100D60000021FFF721BC10BD002C01400004004011
:100D700000080040000C004000100040001400403B
:100D800000340140004C014000500140005401403B
:100D900000180040001C00400020004000400140BE
:100DA000004401400048014002460020138A928915
:100DB0000B4202EA010202D0002A00D00120704753
:100DC000002A828901D00A4300E08A438281704769
:100DD00030B502881B4B1C4C98420DD0A0420BD062
:100DE000B0F1804F08D0194DA84205D0184DA84247
:100DF00002D0184DA84203D122F070054A882A4338
:100E0000154DA84206D0154DA84203D022F44075D6
:100E1000CA882A4302808A88984282850A88028585
:100E20000AD0A04208D00E4A904205D00D4A904206
:100E300002D00D4A904201D1097A018601218182B6
:100E400030BD0000002C014000340140000400408F
:100E500000080040000C004000100040001400405A
:100E600000400140004401400048014070B5134C6F
:100E700040F225552946204600F011F9012809D1F4
:100E8000204600F09DF9C0B200F0E6FC294620465D
:100E900000F061F80821204600F0FAF801280BD193
:100EA000204600F08DF9C0B200F0D6FC2046BDE827
:100EB0007040082100F04CB870BD000000380140BF
:100EC00070B50D4C40F225552946204600F0E7F854
:100ED000012803D12946204600F03DF8082120468C
:100EE00000F0D6F8012805D12046BDE87040082161
:100EF00000F02EB870BD00000044004070B5134CE7
:100F000040F225552946204600F0C9F8012809D1AC
:100F1000204600F055F9C0B200F0CAFC2946204630
:100F200000F019F80821204600F0B2F801280BD192
:100F3000204600F045F9C0B200F0BAFC2046BDE8FA
:100F40007040082100F004B870BD00000048004067
:100F5000C943018070470A0A01219140C9430180B9
:100F600070470029818902D041F4005101E021F449
:100F700000518181704700002DE9F04186B01420B6
:100F8000ADF800000324DFF8F4808DF80240182546
:100F90008DF8035069464046FFF7B8F90820ADF8D0
:100FA000000004268DF8036069464046FFF7AEF95D
:100FB000F001ADF800008DF802408DF8035069464D
:100FC0004046FFF7A3F93702ADF800708DF80360D3
:100FD00069464046FFF79AF9ADF800708DF8024077
:100FE000274C8DF8035069462046FFF78FF9E0142F
:100FF000ADF800008DF8036069462046FFF786F9DA
:101000004FF4165001900020ADF80800ADF80A002A
:10101000ADF80C00ADF810000C201A4CADF80E0025
:1010200001A9204600F072F8174D01A9284600F0EA
:101030006DF8164E01A9304600F068F840F22557C9
:1010400001223946204600F049F80122394630464F
:1010500000F044F801223946284600F03FF801210B
:101060002046FFF77EFF01213046FFF77AFF01217E
:101070002846FFF776FF06B0BDE8F0810008014082
:10108000000C01400038014000480040004400408E
:101090000246002012880A4200D00120704770B535
:1010A00001F01F0601220025C1F3421302FA06F4E3
:1010B000012B0FD0022B0FD0838A4FEA1121008819
:1010C000234202FA01F200EA020001D000B1012538
:1010D000284670BD8389F0E7038AEEE710B5C1F3B7
:1010E000421301F01F040121A140012B07D0022B64
:1010F00007D01430002A026805D00A4304E00C30FF
:10110000F8E71030F6E78A43026010BD30B50446B8
:10111000008A85B00D464CF6FF710840E98801430E
:101120002182A1894EF6F3100140A8882A89104334
:101130006A890A431043A081A08A4FF6FF41084004
:10114000A9890143A1826846FFF78AFA1B488442B5
:1011500001D1039800E00298A1890904002900EB5D
:10116000C00101EB0010296802DA4FEA410101E0F9
:101170004FEA8101B0FBF1F06422B0FBF2F14FEADB
:1011800001114FEA11136FF018056B43A58900EBAD
:1011900083004FF032032D0406D503EBC000B0FBF3
:1011A000F2F000F0070005E003EB0010B0FBF2F0F6
:1011B00000F00F000843208105B030BD0038014029
:1011C0008088C0F308007047C1F308018180704730
:1011D000FEE700000FB4054B10B503A9044A0298BE
:1011E00000F02CF810BC5DF814FB0000A1140008FE
:1011F000FC0000200FB4084B10B504A902AA039804
:1012000000F01CF8044602A9002000F0F1F8204686
:1012100010BC5DF814FB0000F113000802E008C8E0
:10122000121F08C1002AFAD170477047002001E060
:1012300001C1121F002AFBD1704700002DE9FF4FAA
:101240008BB005469A460F460026C6E0252836D1C3
:1012500000246D1C654AA04601212B78203B01FA31
:1012600003F0104202D004436D1CF6E728782E28C4
:1012700017D115F8010F44F004042A280ED06FF09E
:101280002F022878A0F1300109290AD808EB88013B
:1012900002EB410100EB01086D1CF2E757F8048BEB
:1012A0006D1C287869283ED005DC98B363280CD0E3
:1012B000642804D137E0732810D075284DD05246E9
:1012C0000D99904706F1010686E001CF8DF80000E8
:1012D00000208DF80100E946012003E057F8049B47
:1012E0004FF0FF3061074FF0000401D40AE0641CA6
:1012F00044450DDA8442FADB19F804100029F6D1CE
:1013000006E0641C8442FCDB19F804100029F8D1C3
:10131000264405E065E019F8010B52460D99904707
:10132000641EF8D258E001CF4FF00A0B002804DA0F
:10133000C0F100004FF02D0102E0210504D52B2162
:101340008DF82410012104E0E10701D02021F7E706
:1013500000210DF1200908910AE001CF4FF00A0B9E
:10136000F6E75946FEF731FF01F1300209F8012D89
:101370000028F6D1ADEB090000F1200B600701D485
:101380004FF0010800204246D84501DDA2EB0B00DA
:101390008046002406E009A85246005D0D9990475A
:1013A000761C641C08988442F5DB04E03020524629
:1013B0000D999047761CB8F10001A8F10108F5DC01
:1013C00005E019F8010B52460D999047761CBBF1C8
:1013D0000001ABF1010BF4DC6D1C287800287FF4D0
:1013E00035AF0FB03046BDE8F08F0000092801008E
:1013F0000A68531C0B6010707047000002480021FF
:101400000170417081707047DF00002003480021A7
:10141000017201604160C16070470000000100205E
:10142000024800210170417081707047E500002082
:101430002DE9F0410B4F002440F225566525224648
:1014400031463846FFF74AFE074900200855641C1C
:10145000AC42FBD3886631463846BDE8F0410122F4
:10146000FFF73CBE00480040E801002010B50446EC
:101470005B2000F059F9204600F056F9BDE8104015
:101480005D2000F051B9002240F6B83304E000219D
:10149000491C9942FCD3521C8242F8D37047000089
:1014A00070B5074D0446C1B22846FFF78DFE4021B6
:1014B0002846FFF7EDFD0028F9D0204670BD00005A
:1014C000003801402DE9F0411CA000F0A5F9214CA5
:1014D000214D47F2305641F2883801272068401CE0
:1014E0002060B04207DD002020602870BDE8F04198
:1014F0001AA000F091B94046FFF7C5FFA87805286B
:1015000017D2DFE800F0030D1013190019A000F046
:1015100083F9FFF78DFF1AA000F088F9AF70DDE7BF
:10152000FFF7B4F9DAE7FFF79FFAD7E7FFF76AF9B1
:10153000D4E7FFF77DFFD1E7BDE8F08173746172F6
:101540007420696E69742067707273206D6F6465B2
:101550000D0A0000000000200400002047505253F4
:10156000204D4F4445205245474953544552205B36
:101570004E4F5D00535F494E495430200D0A000024
:10158000415445300D0A00002DE9F041144D302042
:10159000144CA87047F230564FF47A772068401CFC
:1015A0002060B04203DD00202060BDE8F0813846B5
:1015B000FFF769FFA878302808D0312809D03228F1
:1015C0000AD03328F1D0FFF733FFE7E7FFF72AFA15
:1015D000E4E7FFF7E1F9E1E7FFF79AF9DEE700005A
:1015E000040000200000002001480078704700003F
:1015F00004000020FFF702FFFFF71AFFFFF706FFC6
:10160000FFF70EFF00F01CF911A0FFF7E3FD15A096
:1016100000F002F9FEF7F9FE18A000F0FDF8FFF760
:1016200051FF1CA000F0F8F8FFF7DEFF20B121A069
:1016300000F0F2F822A003E024A000F0EDF826A0CC
:1016400000F0EAF8012127A000F092F8FEE7000080
:101650000D0A3C3C3C3C53544152543E3E3E3E0DF0
:101660000A000000696E69742075736172742066E7
:10167000696E6973686564200D0A000074696D65A0
:10168000723220696E69742066696E697368656478
:10169000200D0A00696E69742067707273206D6F87
:1016A0006465207265672066696E69736865642089
:1016B0000D0A000047534D204F4B0D0A000000005B
:1016C0000D0A47534D204F4B200D0A004E4F204727
:1016D000534D200D0A0000000D0A47534D204E4F78
:1016E000200D0A00687474703A2F2F747079746F2B
:1016F0006E6778696E2E74616F62616F2E636F6DB5
:101700002F0D0A0070B5074C054680212046FFF7D3
:10171000BFFC0028F9D029462046BDE87040FFF7FD
:1017200053BD00000038014070B5074C05468021CC
:101730002046FFF7ADFC0028F9D029462046BDE839
:101740007040FFF741BD00000044004070B5074CF9
:10175000054680212046FFF79BFC0028F9D029464A
:101760002046BDE87040FFF72FBD00000048004054
:1017700070B590B006460D4640216846FEF7FBFC6A
:10178000FFF702FF1848807833282AD117A21AA140
:101790006846FFF72FFD684600F03EF8684600F007
:1017A00045F86420FFF76FFE00240BE0002403E0FF
:1017B000305DFFF7CBFF641C3046FEF7FEFCA04215
:1017C000F6D8641CAC42F1D36420FFF75CFE1A200B
:1017D000FFF7BCFF42F21070FFF755FE0BA000F0C0
:1017E0001BF810B070BD0000040000203133393206
:1017F000303933313437370041542B434D47533D53
:10180000222B38362573220D0A00000053454E4422
:1018100020544558540D0A0010B5044602E0641CDB
:10182000FFF770FF20780028F9D110BD10B50446ED
:1018300002E0641CFFF78AFF20780028F9D110BD70
:1018400010B5FEF7BDFEFEF706FEFEF7FFFCBDE895
:101850001040FFF791BB000030B400240123114A6F
:10186000242801D1117859B1517801290AD00029D1
:1018700016D10D4909781E2912D130BCFFF766BF79
:101880005370947009490A288D6E48558D6E05F184
:1018900001058D6604D14C55547093701370E8E7C0
:1018A00030BC7047E200002006000020100100203C
:1018B00010B5064CA16E632903D3FFF7B9FD0020D4
:1018C00002E06054A06E401CA06610BDE80100203C
:1018D000F018000800000020000100001C120008A1
:1018E000F019000800010020600500002C1200081B
:1018F00000000000010000000000000000000000E7
:101900000000000000000000303839313638333133
:10191000303832303032303546303131303030428C
:10192000383133313037383331333835463730306A
:101930003038413734433539383835393838303034
:10194000334136323131373734303531433934452C
:1019500038364646304335464542373644363445B8
:1019600030413543304638384142354235304646BD
:1019700030433532324235314339373734303830FD
:101980003941383039413536363230303231333002
:1019900030413735333538313131354330463446CF
:1019A000444435394336464630433542394435425E
:1019B0003944353036353545423737363834344694
:1019C00044443632413437393545333030420000F3
:1019D00000000000000000000204060800000000F3
:1019E00001020304010203040607080900000000C5
:0400000508000131BD
:00000001FF
